{
  "_format": "hh-sol-artifact-1",
  "contractName": "PredictionMarket",
  "sourceName": "contracts/PredictionMarket.sol",
  "abi": [
    {
      "inputs": [
        {
          "internalType": "address",
          "name": "reputationAddress",
          "type": "address"
        }
      ],
      "stateMutability": "nonpayable",
      "type": "constructor"
    },
    {
      "anonymous": false,
      "inputs": [
        {
          "indexed": true,
          "internalType": "uint256",
          "name": "marketId",
          "type": "uint256"
        },
        {
          "indexed": true,
          "internalType": "address",
          "name": "better",
          "type": "address"
        },
        {
          "indexed": false,
          "internalType": "bool",
          "name": "outcome",
          "type": "bool"
        },
        {
          "indexed": false,
          "internalType": "uint256",
          "name": "amount",
          "type": "uint256"
        }
      ],
      "name": "BetPlaced",
      "type": "event"
    },
    {
      "anonymous": false,
      "inputs": [
        {
          "indexed": true,
          "internalType": "uint256",
          "name": "marketId",
          "type": "uint256"
        },
        {
          "indexed": false,
          "internalType": "string",
          "name": "question",
          "type": "string"
        },
        {
          "indexed": false,
          "internalType": "uint256",
          "name": "endsAt",
          "type": "uint256"
        }
      ],
      "name": "MarketCreated",
      "type": "event"
    },
    {
      "anonymous": false,
      "inputs": [
        {
          "indexed": true,
          "internalType": "uint256",
          "name": "marketId",
          "type": "uint256"
        },
        {
          "indexed": false,
          "internalType": "bool",
          "name": "winningOutcome",
          "type": "bool"
        }
      ],
      "name": "MarketResolved",
      "type": "event"
    },
    {
      "anonymous": false,
      "inputs": [
        {
          "indexed": true,
          "internalType": "address",
          "name": "previousOwner",
          "type": "address"
        },
        {
          "indexed": true,
          "internalType": "address",
          "name": "newOwner",
          "type": "address"
        }
      ],
      "name": "OwnershipTransferred",
      "type": "event"
    },
    {
      "anonymous": false,
      "inputs": [
        {
          "indexed": true,
          "internalType": "address",
          "name": "user",
          "type": "address"
        },
        {
          "indexed": false,
          "internalType": "uint256",
          "name": "amount",
          "type": "uint256"
        }
      ],
      "name": "PayoutTransferred",
      "type": "event"
    },
    {
      "inputs": [
        {
          "internalType": "string",
          "name": "_question",
          "type": "string"
        },
        {
          "internalType": "uint256",
          "name": "_duration",
          "type": "uint256"
        }
      ],
      "name": "createMarket",
      "outputs": [],
      "stateMutability": "nonpayable",
      "type": "function"
    },
    {
      "inputs": [
        {
          "internalType": "uint256",
          "name": "",
          "type": "uint256"
        }
      ],
      "name": "markets",
      "outputs": [
        {
          "internalType": "string",
          "name": "question",
          "type": "string"
        },
        {
          "internalType": "uint256",
          "name": "endsAt",
          "type": "uint256"
        },
        {
          "internalType": "enum PredictionMarket.State",
          "name": "state",
          "type": "uint8"
        },
        {
          "internalType": "uint256",
          "name": "totalYesAmount",
          "type": "uint256"
        },
        {
          "internalType": "uint256",
          "name": "totalNoAmount",
          "type": "uint256"
        }
      ],
      "stateMutability": "view",
      "type": "function"
    },
    {
      "inputs": [],
      "name": "owner",
      "outputs": [
        {
          "internalType": "address",
          "name": "",
          "type": "address"
        }
      ],
      "stateMutability": "view",
      "type": "function"
    },
    {
      "inputs": [
        {
          "internalType": "uint256",
          "name": "marketId",
          "type": "uint256"
        },
        {
          "internalType": "bool",
          "name": "outcome",
          "type": "bool"
        }
      ],
      "name": "placeBet",
      "outputs": [],
      "stateMutability": "payable",
      "type": "function"
    },
    {
      "inputs": [],
      "name": "renounceOwnership",
      "outputs": [],
      "stateMutability": "nonpayable",
      "type": "function"
    },
    {
      "inputs": [],
      "name": "reputationContract",
      "outputs": [
        {
          "internalType": "contract Reputation",
          "name": "",
          "type": "address"
        }
      ],
      "stateMutability": "view",
      "type": "function"
    },
    {
      "inputs": [
        {
          "internalType": "uint256",
          "name": "marketId",
          "type": "uint256"
        },
        {
          "internalType": "bool",
          "name": "winningOutcome",
          "type": "bool"
        }
      ],
      "name": "resolveMarket",
      "outputs": [],
      "stateMutability": "nonpayable",
      "type": "function"
    },
    {
      "inputs": [
        {
          "internalType": "address",
          "name": "newOwner",
          "type": "address"
        }
      ],
      "name": "transferOwnership",
      "outputs": [],
      "stateMutability": "nonpayable",
      "type": "function"
    },
    {
      "inputs": [],
      "name": "treasury",
      "outputs": [
        {
          "internalType": "uint256",
          "name": "",
          "type": "uint256"
        }
      ],
      "stateMutability": "view",
      "type": "function"
    },
    {
      "inputs": [],
      "name": "withdrawFees",
      "outputs": [],
      "stateMutability": "nonpayable",
      "type": "function"
    }
  ],
  "bytecode": "0x60806040523480156200001157600080fd5b5060405162001fd538038062001fd58339818101604052810190620000379190620001d5565b620000576200004b6200009f60201b60201c565b620000a760201b60201c565b80600160006101000a81548173ffffffffffffffffffffffffffffffffffffffff021916908373ffffffffffffffffffffffffffffffffffffffff1602179055505062000207565b600033905090565b60008060009054906101000a900473ffffffffffffffffffffffffffffffffffffffff169050816000806101000a81548173ffffffffffffffffffffffffffffffffffffffff021916908373ffffffffffffffffffffffffffffffffffffffff1602179055508173ffffffffffffffffffffffffffffffffffffffff168173ffffffffffffffffffffffffffffffffffffffff167f8be0079c531659141344cd1fd0a4f28419497f9722a3daafe3b4186f6b6457e060405160405180910390a35050565b600080fd5b600073ffffffffffffffffffffffffffffffffffffffff82169050919050565b60006200019d8262000170565b9050919050565b620001af8162000190565b8114620001bb57600080fd5b50565b600081519050620001cf81620001a4565b92915050565b600060208284031215620001ee57620001ed6200016b565b5b6000620001fe84828501620001be565b91505092915050565b611dbe80620002176000396000f3fe6080604052600436106100915760003560e01c8063883c84c111610059578063883c84c1146101435780638da5cb5b1461016c5780639ed9c74d14610197578063b1283e77146101b3578063f2fde38b146101f457610091565b8063476343ee1461009657806357bde446146100ad57806361d027b3146100d6578063715018a61461010157806387bc142514610118575b600080fd5b3480156100a257600080fd5b506100ab61021d565b005b3480156100b957600080fd5b506100d460048036038101906100cf9190611089565b6102c8565b005b3480156100e257600080fd5b506100eb6105c6565b6040516100f891906110d8565b60405180910390f35b34801561010d57600080fd5b506101166105cc565b005b34801561012457600080fd5b5061012d6105e0565b60405161013a9190611172565b60405180910390f35b34801561014f57600080fd5b5061016a600480360381019061016591906112d3565b610606565b005b34801561017857600080fd5b506101816106ee565b60405161018e9190611350565b60405180910390f35b6101b160048036038101906101ac9190611089565b610717565b005b3480156101bf57600080fd5b506101da60048036038101906101d5919061136b565b610bf3565b6040516101eb95949392919061148e565b60405180910390f35b34801561020057600080fd5b5061021b60048036038101906102169190611514565b610cce565b005b610225610d51565b600060025490506000811161026f576040517f08c379a00000000000000000000000000000000000000000000000000000000081526004016102669061158d565b60405180910390fd5b600060028190555061027f6106ee565b73ffffffffffffffffffffffffffffffffffffffff166108fc829081150290604051600060405180830381858888f193505050501580156102c4573d6000803e3d6000fd5b5050565b6102d0610d51565b6003805490508210610317576040517f08c379a000000000000000000000000000000000000000000000000000000000815260040161030e906115f9565b60405180910390fd5b60006003838154811061032d5761032c611619565b5b90600052602060002090600b020190506000600181111561035157610350611417565b5b8160020160009054906101000a900460ff16600181111561037557610374611417565b5b146103b5576040517f08c379a00000000000000000000000000000000000000000000000000000000081526004016103ac90611694565b60405180910390fd5b60018160020160006101000a81548160ff021916908360018111156103dd576103dc611417565b5b0217905550827f4927fe38919783250023d27e65a3e56b6b5c3e49364e51674a41ef08d62460d98360405161041291906116c3565b60405180910390a2600081600401548260030154610430919061170d565b9050600081036104415750506105c2565b60006064826104509190611770565b90508060026000828254610464919061170d565b925050819055506000818361047991906117a1565b905084156105215761051c8185600301548660070180548060200260200160405190810160405280929190818152602001828054801561050e57602002820191906000526020600020905b8160009054906101000a900473ffffffffffffffffffffffffffffffffffffffff1673ffffffffffffffffffffffffffffffffffffffff16815260200190600101908083116104c4575b505050505087600501610dcf565b6105bd565b6105bc818560040154866008018054806020026020016040519081016040528092919081815260200182805480156105ae57602002820191906000526020600020905b8160009054906101000a900473ffffffffffffffffffffffffffffffffffffffff1673ffffffffffffffffffffffffffffffffffffffff1681526020019060010190808311610564575b505050505087600601610dcf565b5b505050505b5050565b60025481565b6105d4610d51565b6105de6000610f3b565b565b600160009054906101000a900473ffffffffffffffffffffffffffffffffffffffff1681565b61060e610d51565b60006003805490509050600060036001816001815401808255809150500390600052602060002090600b020190508381600001908161064d91906119d7565b50824261065a919061170d565b816001018190555060008160020160006101000a81548160ff0219169083600181111561068a57610689611417565b5b02179055506000816003018190555060008160040181905550817f2d1e9ad45dbe8e898e0374deebf2a661b2ae7c1855d2a29507d584c35d287c758585426106d2919061170d565b6040516106e0929190611aa9565b60405180910390a250505050565b60008060009054906101000a900473ffffffffffffffffffffffffffffffffffffffff16905090565b600380549050821061075e576040517f08c379a0000000000000000000000000000000000000000000000000000000008152600401610755906115f9565b60405180910390fd5b60006003838154811061077457610773611619565b5b90600052602060002090600b020190506000600181111561079857610797611417565b5b8160020160009054906101000a900460ff1660018111156107bc576107bb611417565b5b146107fc576040517f08c379a00000000000000000000000000000000000000000000000000000000081526004016107f390611694565b60405180910390fd5b80600101544210610842576040517f08c379a000000000000000000000000000000000000000000000000000000000815260040161083990611b25565b60405180910390fd5b60003411610885576040517f08c379a000000000000000000000000000000000000000000000000000000000815260040161087c90611bb7565b60405180910390fd5b8115610a16578060090160003373ffffffffffffffffffffffffffffffffffffffff1673ffffffffffffffffffffffffffffffffffffffff16815260200190815260200160002060009054906101000a900460ff1661099e5760018160090160003373ffffffffffffffffffffffffffffffffffffffff1673ffffffffffffffffffffffffffffffffffffffff16815260200190815260200160002060006101000a81548160ff02191690831515021790555080600701339080600181540180825580915050600190039060005260206000200160009091909190916101000a81548173ffffffffffffffffffffffffffffffffffffffff021916908373ffffffffffffffffffffffffffffffffffffffff1602179055505b348160050160003373ffffffffffffffffffffffffffffffffffffffff1673ffffffffffffffffffffffffffffffffffffffff16815260200190815260200160002060008282546109ef919061170d565b9250508190555034816003016000828254610a0a919061170d565b92505081905550610b9d565b80600a0160003373ffffffffffffffffffffffffffffffffffffffff1673ffffffffffffffffffffffffffffffffffffffff16815260200190815260200160002060009054906101000a900460ff16610b2957600181600a0160003373ffffffffffffffffffffffffffffffffffffffff1673ffffffffffffffffffffffffffffffffffffffff16815260200190815260200160002060006101000a81548160ff02191690831515021790555080600801339080600181540180825580915050600190039060005260206000200160009091909190916101000a81548173ffffffffffffffffffffffffffffffffffffffff021916908373ffffffffffffffffffffffffffffffffffffffff1602179055505b348160060160003373ffffffffffffffffffffffffffffffffffffffff1673ffffffffffffffffffffffffffffffffffffffff1681526020019081526020016000206000828254610b7a919061170d565b9250508190555034816004016000828254610b95919061170d565b925050819055505b3373ffffffffffffffffffffffffffffffffffffffff16837f4af71b021e799c62c158bd54636ca8da2fa26115a21a2dc6efe486ec104fd15f8434604051610be6929190611bd7565b60405180910390a3505050565b60038181548110610c0357600080fd5b90600052602060002090600b0201600091509050806000018054610c2690611804565b80601f0160208091040260200160405190810160405280929190818152602001828054610c5290611804565b8015610c9f5780601f10610c7457610100808354040283529160200191610c9f565b820191906000526020600020905b815481529060010190602001808311610c8257829003601f168201915b5050505050908060010154908060020160009054906101000a900460ff16908060030154908060040154905085565b610cd6610d51565b600073ffffffffffffffffffffffffffffffffffffffff168173ffffffffffffffffffffffffffffffffffffffff1603610d45576040517f08c379a0000000000000000000000000000000000000000000000000000000008152600401610d3c90611c72565b60405180910390fd5b610d4e81610f3b565b50565b610d59610fff565b73ffffffffffffffffffffffffffffffffffffffff16610d776106ee565b73ffffffffffffffffffffffffffffffffffffffff1614610dcd576040517f08c379a0000000000000000000000000000000000000000000000000000000008152600401610dc490611cde565b60405180910390fd5b565b60008303610df5578360026000828254610de9919061170d565b92505081905550610f35565b60005b8251811015610f33576000838281518110610e1657610e15611619565b5b6020026020010151905060008360008373ffffffffffffffffffffffffffffffffffffffff1673ffffffffffffffffffffffffffffffffffffffff1681526020019081526020016000205490506000868883610e729190611cfe565b610e7c9190611770565b90506000811115610f1d578273ffffffffffffffffffffffffffffffffffffffff166108fc829081150290604051600060405180830381858888f19350505050158015610ecd573d6000803e3d6000fd5b508273ffffffffffffffffffffffffffffffffffffffff167f0e58855c0406c3298822e737f63c71ee491aacda62a190e11e48a4f8d1e7c59f82604051610f1491906110d8565b60405180910390a25b5050508080610f2b90611d40565b915050610df8565b505b50505050565b60008060009054906101000a900473ffffffffffffffffffffffffffffffffffffffff169050816000806101000a81548173ffffffffffffffffffffffffffffffffffffffff021916908373ffffffffffffffffffffffffffffffffffffffff1602179055508173ffffffffffffffffffffffffffffffffffffffff168173ffffffffffffffffffffffffffffffffffffffff167f8be0079c531659141344cd1fd0a4f28419497f9722a3daafe3b4186f6b6457e060405160405180910390a35050565b600033905090565b6000604051905090565b600080fd5b600080fd5b6000819050919050565b61102e8161101b565b811461103957600080fd5b50565b60008135905061104b81611025565b92915050565b60008115159050919050565b61106681611051565b811461107157600080fd5b50565b6000813590506110838161105d565b92915050565b600080604083850312156110a05761109f611011565b5b60006110ae8582860161103c565b92505060206110bf85828601611074565b9150509250929050565b6110d28161101b565b82525050565b60006020820190506110ed60008301846110c9565b92915050565b600073ffffffffffffffffffffffffffffffffffffffff82169050919050565b6000819050919050565b600061113861113361112e846110f3565b611113565b6110f3565b9050919050565b600061114a8261111d565b9050919050565b600061115c8261113f565b9050919050565b61116c81611151565b82525050565b60006020820190506111876000830184611163565b92915050565b600080fd5b600080fd5b6000601f19601f8301169050919050565b7f4e487b7100000000000000000000000000000000000000000000000000000000600052604160045260246000fd5b6111e082611197565b810181811067ffffffffffffffff821117156111ff576111fe6111a8565b5b80604052505050565b6000611212611007565b905061121e82826111d7565b919050565b600067ffffffffffffffff82111561123e5761123d6111a8565b5b61124782611197565b9050602081019050919050565b82818337600083830152505050565b600061127661127184611223565b611208565b90508281526020810184848401111561129257611291611192565b5b61129d848285611254565b509392505050565b600082601f8301126112ba576112b961118d565b5b81356112ca848260208601611263565b91505092915050565b600080604083850312156112ea576112e9611011565b5b600083013567ffffffffffffffff81111561130857611307611016565b5b611314858286016112a5565b92505060206113258582860161103c565b9150509250929050565b600061133a826110f3565b9050919050565b61134a8161132f565b82525050565b60006020820190506113656000830184611341565b92915050565b60006020828403121561138157611380611011565b5b600061138f8482850161103c565b91505092915050565b600081519050919050565b600082825260208201905092915050565b60005b838110156113d25780820151818401526020810190506113b7565b60008484015250505050565b60006113e982611398565b6113f381856113a3565b93506114038185602086016113b4565b61140c81611197565b840191505092915050565b7f4e487b7100000000000000000000000000000000000000000000000000000000600052602160045260246000fd5b6002811061145757611456611417565b5b50565b600081905061146882611446565b919050565b60006114788261145a565b9050919050565b6114888161146d565b82525050565b600060a08201905081810360008301526114a881886113de565b90506114b760208301876110c9565b6114c4604083018661147f565b6114d160608301856110c9565b6114de60808301846110c9565b9695505050505050565b6114f18161132f565b81146114fc57600080fd5b50565b60008135905061150e816114e8565b92915050565b60006020828403121561152a57611529611011565b5b6000611538848285016114ff565b91505092915050565b7f4e6f206665657320746f20776974686472617700000000000000000000000000600082015250565b60006115776013836113a3565b915061158282611541565b602082019050919050565b600060208201905081810360008301526115a68161156a565b9050919050565b7f4d61726b657420646f6573206e6f742065786973740000000000000000000000600082015250565b60006115e36015836113a3565b91506115ee826115ad565b602082019050919050565b60006020820190508181036000830152611612816115d6565b9050919050565b7f4e487b7100000000000000000000000000000000000000000000000000000000600052603260045260246000fd5b7f4d61726b6574206973206e6f74206f70656e0000000000000000000000000000600082015250565b600061167e6012836113a3565b915061168982611648565b602082019050919050565b600060208201905081810360008301526116ad81611671565b9050919050565b6116bd81611051565b82525050565b60006020820190506116d860008301846116b4565b92915050565b7f4e487b7100000000000000000000000000000000000000000000000000000000600052601160045260246000fd5b60006117188261101b565b91506117238361101b565b925082820190508082111561173b5761173a6116de565b5b92915050565b7f4e487b7100000000000000000000000000000000000000000000000000000000600052601260045260246000fd5b600061177b8261101b565b91506117868361101b565b92508261179657611795611741565b5b828204905092915050565b60006117ac8261101b565b91506117b78361101b565b92508282039050818111156117cf576117ce6116de565b5b92915050565b7f4e487b7100000000000000000000000000000000000000000000000000000000600052602260045260246000fd5b6000600282049050600182168061181c57607f821691505b60208210810361182f5761182e6117d5565b5b50919050565b60008190508160005260206000209050919050565b60006020601f8301049050919050565b600082821b905092915050565b6000600883026118977fffffffffffffffffffffffffffffffffffffffffffffffffffffffffffffffff8261185a565b6118a1868361185a565b95508019841693508086168417925050509392505050565b60006118d46118cf6118ca8461101b565b611113565b61101b565b9050919050565b6000819050919050565b6118ee836118b9565b6119026118fa826118db565b848454611867565b825550505050565b600090565b61191761190a565b6119228184846118e5565b505050565b5b818110156119465761193b60008261190f565b600181019050611928565b5050565b601f82111561198b5761195c81611835565b6119658461184a565b81016020851015611974578190505b6119886119808561184a565b830182611927565b50505b505050565b600082821c905092915050565b60006119ae60001984600802611990565b1980831691505092915050565b60006119c7838361199d565b9150826002028217905092915050565b6119e082611398565b67ffffffffffffffff8111156119f9576119f86111a8565b5b611a038254611804565b611a0e82828561194a565b600060209050601f831160018114611a415760008415611a2f578287015190505b611a3985826119bb565b865550611aa1565b601f198416611a4f86611835565b60005b82811015611a7757848901518255600182019150602085019450602081019050611a52565b86831015611a945784890151611a90601f89168261199d565b8355505b6001600288020188555050505b505050505050565b60006040820190508181036000830152611ac381856113de565b9050611ad260208301846110c9565b9392505050565b7f4d61726b65742068617320656e64656400000000000000000000000000000000600082015250565b6000611b0f6010836113a3565b9150611b1a82611ad9565b602082019050919050565b60006020820190508181036000830152611b3e81611b02565b9050919050565b7f42657420616d6f756e74206d7573742062652067726561746572207468616e2060008201527f3000000000000000000000000000000000000000000000000000000000000000602082015250565b6000611ba16021836113a3565b9150611bac82611b45565b604082019050919050565b60006020820190508181036000830152611bd081611b94565b9050919050565b6000604082019050611bec60008301856116b4565b611bf960208301846110c9565b9392505050565b7f4f776e61626c653a206e6577206f776e657220697320746865207a65726f206160008201527f6464726573730000000000000000000000000000000000000000000000000000602082015250565b6000611c5c6026836113a3565b9150611c6782611c00565b604082019050919050565b60006020820190508181036000830152611c8b81611c4f565b9050919050565b7f4f776e61626c653a2063616c6c6572206973206e6f7420746865206f776e6572600082015250565b6000611cc86020836113a3565b9150611cd382611c92565b602082019050919050565b60006020820190508181036000830152611cf781611cbb565b9050919050565b6000611d098261101b565b9150611d148361101b565b9250828202611d228161101b565b91508282048414831517611d3957611d386116de565b5b5092915050565b6000611d4b8261101b565b91507fffffffffffffffffffffffffffffffffffffffffffffffffffffffffffffffff8203611d7d57611d7c6116de565b5b60018201905091905056fea2646970667358221220a202c7a2d8bf682e8e56e75ba1d17b3a02ca4664348f9e48d04b4723a87840a664736f6c63430008140033",
  "linkReferences": {},
  "deployedLinkReferences": {}
}