{
  "_format": "hh-sol-artifact-1",
  "contractName": "PredictionMarket",
  "sourceName": "contracts/PredictionMarket.sol",
  "abi": [
    {
      "inputs": [
        {
          "internalType": "address",
          "name": "reputationAddress",
          "type": "address"
        }
      ],
      "stateMutability": "nonpayable",
      "type": "constructor"
    },
    {
      "anonymous": false,
      "inputs": [
        {
          "indexed": true,
          "internalType": "uint256",
          "name": "marketId",
          "type": "uint256"
        },
        {
          "indexed": true,
          "internalType": "address",
          "name": "better",
          "type": "address"
        },
        {
          "indexed": false,
          "internalType": "bool",
          "name": "outcome",
          "type": "bool"
        },
        {
          "indexed": false,
          "internalType": "uint256",
          "name": "amount",
          "type": "uint256"
        }
      ],
      "name": "BetPlaced",
      "type": "event"
    },
    {
      "anonymous": false,
      "inputs": [
        {
          "indexed": true,
          "internalType": "uint256",
          "name": "marketId",
          "type": "uint256"
        },
        {
          "indexed": false,
          "internalType": "string",
          "name": "question",
          "type": "string"
        },
        {
          "indexed": false,
          "internalType": "uint256",
          "name": "endsAt",
          "type": "uint256"
        }
      ],
      "name": "MarketCreated",
      "type": "event"
    },
    {
      "anonymous": false,
      "inputs": [
        {
          "indexed": true,
          "internalType": "uint256",
          "name": "marketId",
          "type": "uint256"
        },
        {
          "indexed": false,
          "internalType": "bool",
          "name": "winningOutcome",
          "type": "bool"
        }
      ],
      "name": "MarketResolved",
      "type": "event"
    },
    {
      "anonymous": false,
      "inputs": [
        {
          "indexed": true,
          "internalType": "address",
          "name": "previousOwner",
          "type": "address"
        },
        {
          "indexed": true,
          "internalType": "address",
          "name": "newOwner",
          "type": "address"
        }
      ],
      "name": "OwnershipTransferred",
      "type": "event"
    },
    {
      "anonymous": false,
      "inputs": [
        {
          "indexed": true,
          "internalType": "address",
          "name": "user",
          "type": "address"
        },
        {
          "indexed": false,
          "internalType": "uint256",
          "name": "amount",
          "type": "uint256"
        }
      ],
      "name": "PayoutTransferred",
      "type": "event"
    },
    {
      "anonymous": false,
      "inputs": [
        {
          "indexed": true,
          "internalType": "uint256",
          "name": "marketId",
          "type": "uint256"
        },
        {
          "indexed": true,
          "internalType": "address",
          "name": "better",
          "type": "address"
        },
        {
          "indexed": false,
          "internalType": "bool",
          "name": "outcome",
          "type": "bool"
        },
        {
          "indexed": false,
          "internalType": "uint256",
          "name": "amount",
          "type": "uint256"
        }
      ],
      "name": "PredictionPlaced",
      "type": "event"
    },
    {
      "inputs": [
        {
          "internalType": "string",
          "name": "_question",
          "type": "string"
        },
        {
          "internalType": "uint256",
          "name": "_duration",
          "type": "uint256"
        }
      ],
      "name": "createMarket",
      "outputs": [],
      "stateMutability": "nonpayable",
      "type": "function"
    },
    {
      "inputs": [
        {
          "internalType": "uint256",
          "name": "",
          "type": "uint256"
        }
      ],
      "name": "markets",
      "outputs": [
        {
          "internalType": "string",
          "name": "question",
          "type": "string"
        },
        {
          "internalType": "uint256",
          "name": "endsAt",
          "type": "uint256"
        },
        {
          "internalType": "enum PredictionMarket.State",
          "name": "state",
          "type": "uint8"
        },
        {
          "internalType": "uint256",
          "name": "totalYesAmount",
          "type": "uint256"
        },
        {
          "internalType": "uint256",
          "name": "totalNoAmount",
          "type": "uint256"
        }
      ],
      "stateMutability": "view",
      "type": "function"
    },
    {
      "inputs": [],
      "name": "owner",
      "outputs": [
        {
          "internalType": "address",
          "name": "",
          "type": "address"
        }
      ],
      "stateMutability": "view",
      "type": "function"
    },
    {
      "inputs": [
        {
          "internalType": "uint256",
          "name": "marketId",
          "type": "uint256"
        },
        {
          "internalType": "bool",
          "name": "outcome",
          "type": "bool"
        }
      ],
      "name": "placeBet",
      "outputs": [],
      "stateMutability": "payable",
      "type": "function"
    },
    {
      "inputs": [],
      "name": "renounceOwnership",
      "outputs": [],
      "stateMutability": "nonpayable",
      "type": "function"
    },
    {
      "inputs": [],
      "name": "reputationContract",
      "outputs": [
        {
          "internalType": "contract Reputation",
          "name": "",
          "type": "address"
        }
      ],
      "stateMutability": "view",
      "type": "function"
    },
    {
      "inputs": [
        {
          "internalType": "uint256",
          "name": "marketId",
          "type": "uint256"
        },
        {
          "internalType": "bool",
          "name": "winningOutcome",
          "type": "bool"
        }
      ],
      "name": "resolveMarket",
      "outputs": [],
      "stateMutability": "nonpayable",
      "type": "function"
    },
    {
      "inputs": [
        {
          "internalType": "address",
          "name": "newOwner",
          "type": "address"
        }
      ],
      "name": "transferOwnership",
      "outputs": [],
      "stateMutability": "nonpayable",
      "type": "function"
    },
    {
      "inputs": [],
      "name": "treasury",
      "outputs": [
        {
          "internalType": "uint256",
          "name": "",
          "type": "uint256"
        }
      ],
      "stateMutability": "view",
      "type": "function"
    },
    {
      "inputs": [],
      "name": "withdrawFees",
      "outputs": [],
      "stateMutability": "nonpayable",
      "type": "function"
    }
  ],
  "bytecode": "0x60806040523480156200001157600080fd5b5060405162002052380380620020528339818101604052810190620000379190620001d5565b620000576200004b6200009f60201b60201c565b620000a760201b60201c565b80600160006101000a81548173ffffffffffffffffffffffffffffffffffffffff021916908373ffffffffffffffffffffffffffffffffffffffff1602179055505062000207565b600033905090565b60008060009054906101000a900473ffffffffffffffffffffffffffffffffffffffff169050816000806101000a81548173ffffffffffffffffffffffffffffffffffffffff021916908373ffffffffffffffffffffffffffffffffffffffff1602179055508173ffffffffffffffffffffffffffffffffffffffff168173ffffffffffffffffffffffffffffffffffffffff167f8be0079c531659141344cd1fd0a4f28419497f9722a3daafe3b4186f6b6457e060405160405180910390a35050565b600080fd5b600073ffffffffffffffffffffffffffffffffffffffff82169050919050565b60006200019d8262000170565b9050919050565b620001af8162000190565b8114620001bb57600080fd5b50565b600081519050620001cf81620001a4565b92915050565b600060208284031215620001ee57620001ed6200016b565b5b6000620001fe84828501620001be565b91505092915050565b611e3b80620002176000396000f3fe6080604052600436106100915760003560e01c8063883c84c111610059578063883c84c1146101435780638da5cb5b1461016c5780639ed9c74d14610197578063b1283e77146101b3578063f2fde38b146101f457610091565b8063476343ee1461009657806357bde446146100ad57806361d027b3146100d6578063715018a61461010157806387bc142514610118575b600080fd5b3480156100a257600080fd5b506100ab61021d565b005b3480156100b957600080fd5b506100d460048036038101906100cf9190611106565b6102c8565b005b3480156100e257600080fd5b506100eb6105c6565b6040516100f89190611155565b60405180910390f35b34801561010d57600080fd5b506101166105cc565b005b34801561012457600080fd5b5061012d6105e0565b60405161013a91906111ef565b60405180910390f35b34801561014f57600080fd5b5061016a60048036038101906101659190611350565b610606565b005b34801561017857600080fd5b5061018161071a565b60405161018e91906113cd565b60405180910390f35b6101b160048036038101906101ac9190611106565b610743565b005b3480156101bf57600080fd5b506101da60048036038101906101d591906113e8565b610c70565b6040516101eb95949392919061150b565b60405180910390f35b34801561020057600080fd5b5061021b60048036038101906102169190611591565b610d4b565b005b610225610dce565b600060025490506000811161026f576040517f08c379a00000000000000000000000000000000000000000000000000000000081526004016102669061160a565b60405180910390fd5b600060028190555061027f61071a565b73ffffffffffffffffffffffffffffffffffffffff166108fc829081150290604051600060405180830381858888f193505050501580156102c4573d6000803e3d6000fd5b5050565b6102d0610dce565b6003805490508210610317576040517f08c379a000000000000000000000000000000000000000000000000000000000815260040161030e90611676565b60405180910390fd5b60006003838154811061032d5761032c611696565b5b90600052602060002090600b020190506000600181111561035157610350611494565b5b8160020160009054906101000a900460ff16600181111561037557610374611494565b5b146103b5576040517f08c379a00000000000000000000000000000000000000000000000000000000081526004016103ac90611711565b60405180910390fd5b60018160020160006101000a81548160ff021916908360018111156103dd576103dc611494565b5b0217905550827f4927fe38919783250023d27e65a3e56b6b5c3e49364e51674a41ef08d62460d9836040516104129190611740565b60405180910390a2600081600401548260030154610430919061178a565b9050600081036104415750506105c2565b600060648261045091906117ed565b90508060026000828254610464919061178a565b9250508190555060008183610479919061181e565b905084156105215761051c8185600301548660070180548060200260200160405190810160405280929190818152602001828054801561050e57602002820191906000526020600020905b8160009054906101000a900473ffffffffffffffffffffffffffffffffffffffff1673ffffffffffffffffffffffffffffffffffffffff16815260200190600101908083116104c4575b505050505087600501610e4c565b6105bd565b6105bc818560040154866008018054806020026020016040519081016040528092919081815260200182805480156105ae57602002820191906000526020600020905b8160009054906101000a900473ffffffffffffffffffffffffffffffffffffffff1673ffffffffffffffffffffffffffffffffffffffff1681526020019060010190808311610564575b505050505087600601610e4c565b5b505050505b5050565b60025481565b6105d4610dce565b6105de6000610fb8565b565b600160009054906101000a900473ffffffffffffffffffffffffffffffffffffffff1681565b61060e610dce565b60036001816001815401808255809150500390600052602060002090505060006001600380549050610640919061181e565b905060006003828154811061065857610657611696565b5b90600052602060002090600b02019050838160000190816106799190611a54565b508242610686919061178a565b816001018190555060008160020160006101000a81548160ff021916908360018111156106b6576106b5611494565b5b02179055506000816003018190555060008160040181905550817f2d1e9ad45dbe8e898e0374deebf2a661b2ae7c1855d2a29507d584c35d287c758585426106fe919061178a565b60405161070c929190611b26565b60405180910390a250505050565b60008060009054906101000a900473ffffffffffffffffffffffffffffffffffffffff16905090565b600380549050821061078a576040517f08c379a000000000000000000000000000000000000000000000000000000000815260040161078190611676565b60405180910390fd5b6000600383815481106107a05761079f611696565b5b90600052602060002090600b02019050600060018111156107c4576107c3611494565b5b8160020160009054906101000a900460ff1660018111156107e8576107e7611494565b5b14610828576040517f08c379a000000000000000000000000000000000000000000000000000000000815260040161081f90611711565b60405180910390fd5b8060010154421061086e576040517f08c379a000000000000000000000000000000000000000000000000000000000815260040161086590611ba2565b60405180910390fd5b600034116108b1576040517f08c379a00000000000000000000000000000000000000000000000000000000081526004016108a890611c34565b60405180910390fd5b8115610a42578060090160003373ffffffffffffffffffffffffffffffffffffffff1673ffffffffffffffffffffffffffffffffffffffff16815260200190815260200160002060009054906101000a900460ff166109ca5760018160090160003373ffffffffffffffffffffffffffffffffffffffff1673ffffffffffffffffffffffffffffffffffffffff16815260200190815260200160002060006101000a81548160ff02191690831515021790555080600701339080600181540180825580915050600190039060005260206000200160009091909190916101000a81548173ffffffffffffffffffffffffffffffffffffffff021916908373ffffffffffffffffffffffffffffffffffffffff1602179055505b348160050160003373ffffffffffffffffffffffffffffffffffffffff1673ffffffffffffffffffffffffffffffffffffffff1681526020019081526020016000206000828254610a1b919061178a565b9250508190555034816003016000828254610a36919061178a565b92505081905550610bc9565b80600a0160003373ffffffffffffffffffffffffffffffffffffffff1673ffffffffffffffffffffffffffffffffffffffff16815260200190815260200160002060009054906101000a900460ff16610b5557600181600a0160003373ffffffffffffffffffffffffffffffffffffffff1673ffffffffffffffffffffffffffffffffffffffff16815260200190815260200160002060006101000a81548160ff02191690831515021790555080600801339080600181540180825580915050600190039060005260206000200160009091909190916101000a81548173ffffffffffffffffffffffffffffffffffffffff021916908373ffffffffffffffffffffffffffffffffffffffff1602179055505b348160060160003373ffffffffffffffffffffffffffffffffffffffff1673ffffffffffffffffffffffffffffffffffffffff1681526020019081526020016000206000828254610ba6919061178a565b9250508190555034816004016000828254610bc1919061178a565b925050819055505b3373ffffffffffffffffffffffffffffffffffffffff16837f4af71b021e799c62c158bd54636ca8da2fa26115a21a2dc6efe486ec104fd15f8434604051610c12929190611c54565b60405180910390a33373ffffffffffffffffffffffffffffffffffffffff16837f7ae59d09350fd625b6d654adc6a6bfe53937659382863078ee717d266d549d418434604051610c63929190611c54565b60405180910390a3505050565b60038181548110610c8057600080fd5b90600052602060002090600b0201600091509050806000018054610ca390611881565b80601f0160208091040260200160405190810160405280929190818152602001828054610ccf90611881565b8015610d1c5780601f10610cf157610100808354040283529160200191610d1c565b820191906000526020600020905b815481529060010190602001808311610cff57829003601f168201915b5050505050908060010154908060020160009054906101000a900460ff16908060030154908060040154905085565b610d53610dce565b600073ffffffffffffffffffffffffffffffffffffffff168173ffffffffffffffffffffffffffffffffffffffff1603610dc2576040517f08c379a0000000000000000000000000000000000000000000000000000000008152600401610db990611cef565b60405180910390fd5b610dcb81610fb8565b50565b610dd661107c565b73ffffffffffffffffffffffffffffffffffffffff16610df461071a565b73ffffffffffffffffffffffffffffffffffffffff1614610e4a576040517f08c379a0000000000000000000000000000000000000000000000000000000008152600401610e4190611d5b565b60405180910390fd5b565b60008303610e72578360026000828254610e66919061178a565b92505081905550610fb2565b60005b8251811015610fb0576000838281518110610e9357610e92611696565b5b6020026020010151905060008360008373ffffffffffffffffffffffffffffffffffffffff1673ffffffffffffffffffffffffffffffffffffffff1681526020019081526020016000205490506000868883610eef9190611d7b565b610ef991906117ed565b90506000811115610f9a578273ffffffffffffffffffffffffffffffffffffffff166108fc829081150290604051600060405180830381858888f19350505050158015610f4a573d6000803e3d6000fd5b508273ffffffffffffffffffffffffffffffffffffffff167f0e58855c0406c3298822e737f63c71ee491aacda62a190e11e48a4f8d1e7c59f82604051610f919190611155565b60405180910390a25b5050508080610fa890611dbd565b915050610e75565b505b50505050565b60008060009054906101000a900473ffffffffffffffffffffffffffffffffffffffff169050816000806101000a81548173ffffffffffffffffffffffffffffffffffffffff021916908373ffffffffffffffffffffffffffffffffffffffff1602179055508173ffffffffffffffffffffffffffffffffffffffff168173ffffffffffffffffffffffffffffffffffffffff167f8be0079c531659141344cd1fd0a4f28419497f9722a3daafe3b4186f6b6457e060405160405180910390a35050565b600033905090565b6000604051905090565b600080fd5b600080fd5b6000819050919050565b6110ab81611098565b81146110b657600080fd5b50565b6000813590506110c8816110a2565b92915050565b60008115159050919050565b6110e3816110ce565b81146110ee57600080fd5b50565b600081359050611100816110da565b92915050565b6000806040838503121561111d5761111c61108e565b5b600061112b858286016110b9565b925050602061113c858286016110f1565b9150509250929050565b61114f81611098565b82525050565b600060208201905061116a6000830184611146565b92915050565b600073ffffffffffffffffffffffffffffffffffffffff82169050919050565b6000819050919050565b60006111b56111b06111ab84611170565b611190565b611170565b9050919050565b60006111c78261119a565b9050919050565b60006111d9826111bc565b9050919050565b6111e9816111ce565b82525050565b600060208201905061120460008301846111e0565b92915050565b600080fd5b600080fd5b6000601f19601f8301169050919050565b7f4e487b7100000000000000000000000000000000000000000000000000000000600052604160045260246000fd5b61125d82611214565b810181811067ffffffffffffffff8211171561127c5761127b611225565b5b80604052505050565b600061128f611084565b905061129b8282611254565b919050565b600067ffffffffffffffff8211156112bb576112ba611225565b5b6112c482611214565b9050602081019050919050565b82818337600083830152505050565b60006112f36112ee846112a0565b611285565b90508281526020810184848401111561130f5761130e61120f565b5b61131a8482856112d1565b509392505050565b600082601f8301126113375761133661120a565b5b81356113478482602086016112e0565b91505092915050565b600080604083850312156113675761136661108e565b5b600083013567ffffffffffffffff81111561138557611384611093565b5b61139185828601611322565b92505060206113a2858286016110b9565b9150509250929050565b60006113b782611170565b9050919050565b6113c7816113ac565b82525050565b60006020820190506113e260008301846113be565b92915050565b6000602082840312156113fe576113fd61108e565b5b600061140c848285016110b9565b91505092915050565b600081519050919050565b600082825260208201905092915050565b60005b8381101561144f578082015181840152602081019050611434565b60008484015250505050565b600061146682611415565b6114708185611420565b9350611480818560208601611431565b61148981611214565b840191505092915050565b7f4e487b7100000000000000000000000000000000000000000000000000000000600052602160045260246000fd5b600281106114d4576114d3611494565b5b50565b60008190506114e5826114c3565b919050565b60006114f5826114d7565b9050919050565b611505816114ea565b82525050565b600060a0820190508181036000830152611525818861145b565b90506115346020830187611146565b61154160408301866114fc565b61154e6060830185611146565b61155b6080830184611146565b9695505050505050565b61156e816113ac565b811461157957600080fd5b50565b60008135905061158b81611565565b92915050565b6000602082840312156115a7576115a661108e565b5b60006115b58482850161157c565b91505092915050565b7f4e6f206665657320746f20776974686472617700000000000000000000000000600082015250565b60006115f4601383611420565b91506115ff826115be565b602082019050919050565b60006020820190508181036000830152611623816115e7565b9050919050565b7f4d61726b657420646f6573206e6f742065786973740000000000000000000000600082015250565b6000611660601583611420565b915061166b8261162a565b602082019050919050565b6000602082019050818103600083015261168f81611653565b9050919050565b7f4e487b7100000000000000000000000000000000000000000000000000000000600052603260045260246000fd5b7f4d61726b6574206973206e6f74206f70656e0000000000000000000000000000600082015250565b60006116fb601283611420565b9150611706826116c5565b602082019050919050565b6000602082019050818103600083015261172a816116ee565b9050919050565b61173a816110ce565b82525050565b60006020820190506117556000830184611731565b92915050565b7f4e487b7100000000000000000000000000000000000000000000000000000000600052601160045260246000fd5b600061179582611098565b91506117a083611098565b92508282019050808211156117b8576117b761175b565b5b92915050565b7f4e487b7100000000000000000000000000000000000000000000000000000000600052601260045260246000fd5b60006117f882611098565b915061180383611098565b925082611813576118126117be565b5b828204905092915050565b600061182982611098565b915061183483611098565b925082820390508181111561184c5761184b61175b565b5b92915050565b7f4e487b7100000000000000000000000000000000000000000000000000000000600052602260045260246000fd5b6000600282049050600182168061189957607f821691505b6020821081036118ac576118ab611852565b5b50919050565b60008190508160005260206000209050919050565b60006020601f8301049050919050565b600082821b905092915050565b6000600883026119147fffffffffffffffffffffffffffffffffffffffffffffffffffffffffffffffff826118d7565b61191e86836118d7565b95508019841693508086168417925050509392505050565b600061195161194c61194784611098565b611190565b611098565b9050919050565b6000819050919050565b61196b83611936565b61197f61197782611958565b8484546118e4565b825550505050565b600090565b611994611987565b61199f818484611962565b505050565b5b818110156119c3576119b860008261198c565b6001810190506119a5565b5050565b601f821115611a08576119d9816118b2565b6119e2846118c7565b810160208510156119f1578190505b611a056119fd856118c7565b8301826119a4565b50505b505050565b600082821c905092915050565b6000611a2b60001984600802611a0d565b1980831691505092915050565b6000611a448383611a1a565b9150826002028217905092915050565b611a5d82611415565b67ffffffffffffffff811115611a7657611a75611225565b5b611a808254611881565b611a8b8282856119c7565b600060209050601f831160018114611abe5760008415611aac578287015190505b611ab68582611a38565b865550611b1e565b601f198416611acc866118b2565b60005b82811015611af457848901518255600182019150602085019450602081019050611acf565b86831015611b115784890151611b0d601f891682611a1a565b8355505b6001600288020188555050505b505050505050565b60006040820190508181036000830152611b40818561145b565b9050611b4f6020830184611146565b9392505050565b7f4d61726b65742068617320656e64656400000000000000000000000000000000600082015250565b6000611b8c601083611420565b9150611b9782611b56565b602082019050919050565b60006020820190508181036000830152611bbb81611b7f565b9050919050565b7f42657420616d6f756e74206d7573742062652067726561746572207468616e2060008201527f3000000000000000000000000000000000000000000000000000000000000000602082015250565b6000611c1e602183611420565b9150611c2982611bc2565b604082019050919050565b60006020820190508181036000830152611c4d81611c11565b9050919050565b6000604082019050611c696000830185611731565b611c766020830184611146565b9392505050565b7f4f776e61626c653a206e6577206f776e657220697320746865207a65726f206160008201527f6464726573730000000000000000000000000000000000000000000000000000602082015250565b6000611cd9602683611420565b9150611ce482611c7d565b604082019050919050565b60006020820190508181036000830152611d0881611ccc565b9050919050565b7f4f776e61626c653a2063616c6c6572206973206e6f7420746865206f776e6572600082015250565b6000611d45602083611420565b9150611d5082611d0f565b602082019050919050565b60006020820190508181036000830152611d7481611d38565b9050919050565b6000611d8682611098565b9150611d9183611098565b9250828202611d9f81611098565b91508282048414831517611db657611db561175b565b5b5092915050565b6000611dc882611098565b91507fffffffffffffffffffffffffffffffffffffffffffffffffffffffffffffffff8203611dfa57611df961175b565b5b60018201905091905056fea26469706673582212207369b407eb003b5130eb6e38c2668d8e752706950f532f509ef5aa1b1131505664736f6c63430008140033",
  "linkReferences": {},
  "deployedLinkReferences": {}
}