{
  "_format": "hh-sol-artifact-1",
  "contractName": "Market",
  "sourceName": "contracts/contracts/Market.sol",
  "abi": [
    {
      "inputs": [],
      "stateMutability": "nonpayable",
      "type": "constructor"
    },
    {
      "anonymous": false,
      "inputs": [
        {
          "indexed": true,
          "internalType": "uint256",
          "name": "marketId",
          "type": "uint256"
        },
        {
          "indexed": true,
          "internalType": "address",
          "name": "bettor",
          "type": "address"
        },
        {
          "indexed": false,
          "internalType": "uint256",
          "name": "amount",
          "type": "uint256"
        },
        {
          "indexed": false,
          "internalType": "bool",
          "name": "onYes",
          "type": "bool"
        }
      ],
      "name": "BetPlaced",
      "type": "event"
    },
    {
      "anonymous": false,
      "inputs": [
        {
          "indexed": true,
          "internalType": "uint256",
          "name": "marketId",
          "type": "uint256"
        }
      ],
      "name": "MarketCreated",
      "type": "event"
    },
    {
      "anonymous": false,
      "inputs": [
        {
          "indexed": true,
          "internalType": "uint256",
          "name": "marketId",
          "type": "uint256"
        },
        {
          "indexed": false,
          "internalType": "enum Market.Outcome",
          "name": "outcome",
          "type": "uint8"
        }
      ],
      "name": "MarketResolved",
      "type": "event"
    },
    {
      "inputs": [
        {
          "internalType": "uint256",
          "name": "marketId",
          "type": "uint256"
        }
      ],
      "name": "claim",
      "outputs": [],
      "stateMutability": "nonpayable",
      "type": "function"
    },
    {
      "inputs": [
        {
          "internalType": "uint256",
          "name": "",
          "type": "uint256"
        },
        {
          "internalType": "address",
          "name": "",
          "type": "address"
        }
      ],
      "name": "contributionNo",
      "outputs": [
        {
          "internalType": "uint256",
          "name": "",
          "type": "uint256"
        }
      ],
      "stateMutability": "view",
      "type": "function"
    },
    {
      "inputs": [
        {
          "internalType": "uint256",
          "name": "",
          "type": "uint256"
        },
        {
          "internalType": "address",
          "name": "",
          "type": "address"
        }
      ],
      "name": "contributionYes",
      "outputs": [
        {
          "internalType": "uint256",
          "name": "",
          "type": "uint256"
        }
      ],
      "stateMutability": "view",
      "type": "function"
    },
    {
      "inputs": [
        {
          "internalType": "uint256",
          "name": "marketId",
          "type": "uint256"
        }
      ],
      "name": "createMarket",
      "outputs": [],
      "stateMutability": "nonpayable",
      "type": "function"
    },
    {
      "inputs": [
        {
          "internalType": "uint256",
          "name": "",
          "type": "uint256"
        }
      ],
      "name": "markets",
      "outputs": [
        {
          "internalType": "bool",
          "name": "exists",
          "type": "bool"
        },
        {
          "internalType": "bool",
          "name": "resolved",
          "type": "bool"
        },
        {
          "internalType": "enum Market.Outcome",
          "name": "outcome",
          "type": "uint8"
        },
        {
          "internalType": "uint256",
          "name": "totalYes",
          "type": "uint256"
        },
        {
          "internalType": "uint256",
          "name": "totalNo",
          "type": "uint256"
        }
      ],
      "stateMutability": "view",
      "type": "function"
    },
    {
      "inputs": [],
      "name": "owner",
      "outputs": [
        {
          "internalType": "address",
          "name": "",
          "type": "address"
        }
      ],
      "stateMutability": "view",
      "type": "function"
    },
    {
      "inputs": [
        {
          "internalType": "uint256",
          "name": "marketId",
          "type": "uint256"
        },
        {
          "internalType": "bool",
          "name": "onYes",
          "type": "bool"
        }
      ],
      "name": "placeBet",
      "outputs": [],
      "stateMutability": "payable",
      "type": "function"
    },
    {
      "inputs": [
        {
          "internalType": "uint256",
          "name": "marketId",
          "type": "uint256"
        },
        {
          "internalType": "enum Market.Outcome",
          "name": "outcome",
          "type": "uint8"
        }
      ],
      "name": "resolve",
      "outputs": [],
      "stateMutability": "nonpayable",
      "type": "function"
    }
  ],
  "bytecode": "0x608060405234801561001057600080fd5b5033600360006101000a81548173ffffffffffffffffffffffffffffffffffffffff021916908373ffffffffffffffffffffffffffffffffffffffff1602179055506116e9806100616000396000f3fe60806040526004361061007b5760003560e01c80639ed9c74d1161004e5780639ed9c74d14610126578063ad695da014610142578063b1283e771461017f578063c5f55247146101c05761007b565b8063379607f51461008057806353c06c38146100a95780638da5cb5b146100d25780639c0e1608146100fd575b600080fd5b34801561008c57600080fd5b506100a760048036038101906100a29190610e4c565b6101fd565b005b3480156100b557600080fd5b506100d060048036038101906100cb9190610e4c565b610626565b005b3480156100de57600080fd5b506100e7610824565b6040516100f49190610eba565b60405180910390f35b34801561010957600080fd5b50610124600480360381019061011f9190610efa565b61084a565b005b610140600480360381019061013b9190610f72565b610adb565b005b34801561014e57600080fd5b5061016960048036038101906101649190610fde565b610d6a565b604051610176919061102d565b60405180910390f35b34801561018b57600080fd5b506101a660048036038101906101a19190610e4c565b610d8f565b6040516101b79594939291906110ce565b60405180910390f35b3480156101cc57600080fd5b506101e760048036038101906101e29190610fde565b610dec565b6040516101f4919061102d565b60405180910390f35b60008082815260200190815260200160002060000160009054906101000a900460ff16801561024b575060008082815260200190815260200160002060000160019054906101000a900460ff165b61028a576040517f08c379a00000000000000000000000000000000000000000000000000000000081526004016102819061117e565b60405180910390fd5b600080600083815260200190815260200160002060000160029054906101000a900460ff1690506000600160028111156102c7576102c6611057565b5b8260028111156102da576102d9611057565b5b146102fa5760008084815260200190815260200160002060020154610311565b600080848152602001908152602001600020600101545b905060006001600281111561032957610328611057565b5b83600281111561033c5761033b611057565b5b1461035c5760008085815260200190815260200160002060010154610373565b600080858152602001908152602001600020600201545b9050600082116103b8576040517f08c379a00000000000000000000000000000000000000000000000000000000081526004016103af906111ea565b60405180910390fd5b6000600160028111156103ce576103cd611057565b5b8460028111156103e1576103e0611057565b5b1461043c576002600086815260200190815260200160002060003373ffffffffffffffffffffffffffffffffffffffff1673ffffffffffffffffffffffffffffffffffffffff1681526020019081526020016000205461048e565b6001600086815260200190815260200160002060003373ffffffffffffffffffffffffffffffffffffffff1673ffffffffffffffffffffffffffffffffffffffff168152602001908152602001600020545b9050600081116104d3576040517f08c379a00000000000000000000000000000000000000000000000000000000081526004016104ca90611256565b60405180910390fd5b60008383836104e291906112a5565b6104ec9190611316565b826104f79190611347565b90506001600281111561050d5761050c611057565b5b8560028111156105205761051f611057565b5b036105805760006001600088815260200190815260200160002060003373ffffffffffffffffffffffffffffffffffffffff1673ffffffffffffffffffffffffffffffffffffffff168152602001908152602001600020819055506105d7565b60006002600088815260200190815260200160002060003373ffffffffffffffffffffffffffffffffffffffff1673ffffffffffffffffffffffffffffffffffffffff168152602001908152602001600020819055505b3373ffffffffffffffffffffffffffffffffffffffff166108fc829081150290604051600060405180830381858888f1935050505015801561061d573d6000803e3d6000fd5b50505050505050565b600360009054906101000a900473ffffffffffffffffffffffffffffffffffffffff1673ffffffffffffffffffffffffffffffffffffffff163373ffffffffffffffffffffffffffffffffffffffff16146106b6576040517f08c379a00000000000000000000000000000000000000000000000000000000081526004016106ad906113c7565b60405180910390fd5b60008082815260200190815260200160002060000160009054906101000a900460ff1615610719576040517f08c379a000000000000000000000000000000000000000000000000000000000815260040161071090611433565b60405180910390fd5b6040518060a001604052806001151581526020016000151581526020016000600281111561074a57610749611057565b5b815260200160008152602001600081525060008083815260200190815260200160002060008201518160000160006101000a81548160ff02191690831515021790555060208201518160000160016101000a81548160ff02191690831515021790555060408201518160000160026101000a81548160ff021916908360028111156107d8576107d7611057565b5b02179055506060820151816001015560808201518160020155905050807f25b2eff8f9cbb97c6c73adf7d94f4f8956260becc65ab075709db7561914a2b160405160405180910390a250565b600360009054906101000a900473ffffffffffffffffffffffffffffffffffffffff1681565b600360009054906101000a900473ffffffffffffffffffffffffffffffffffffffff1673ffffffffffffffffffffffffffffffffffffffff163373ffffffffffffffffffffffffffffffffffffffff16146108da576040517f08c379a00000000000000000000000000000000000000000000000000000000081526004016108d1906113c7565b60405180910390fd5b60008083815260200190815260200160002060000160009054906101000a900460ff1661093c576040517f08c379a00000000000000000000000000000000000000000000000000000000081526004016109339061149f565b60405180910390fd5b60008083815260200190815260200160002060000160019054906101000a900460ff161561099f576040517f08c379a00000000000000000000000000000000000000000000000000000000081526004016109969061150b565b60405180910390fd5b600160028111156109b3576109b2611057565b5b8160028111156109c6576109c5611057565b5b14806109f557506002808111156109e0576109df611057565b5b8160028111156109f3576109f2611057565b5b145b610a34576040517f08c379a0000000000000000000000000000000000000000000000000000000008152600401610a2b90611577565b60405180910390fd5b600160008084815260200190815260200160002060000160016101000a81548160ff0219169083151502179055508060008084815260200190815260200160002060000160026101000a81548160ff02191690836002811115610a9a57610a99611057565b5b0217905550817f739f283563fb51ab6b89ee95d937b2e63a6cfcb83c385dbebb629f9d97bd43e682604051610acf9190611597565b60405180910390a25050565b60008083815260200190815260200160002060000160009054906101000a900460ff16610b3d576040517f08c379a0000000000000000000000000000000000000000000000000000000008152600401610b349061149f565b60405180910390fd5b60008083815260200190815260200160002060000160019054906101000a900460ff1615610ba0576040517f08c379a0000000000000000000000000000000000000000000000000000000008152600401610b97906115fe565b60405180910390fd5b60003411610be3576040517f08c379a0000000000000000000000000000000000000000000000000000000008152600401610bda9061166a565b60405180910390fd5b8015610c8157346001600084815260200190815260200160002060003373ffffffffffffffffffffffffffffffffffffffff1673ffffffffffffffffffffffffffffffffffffffff1681526020019081526020016000206000828254610c499190611347565b92505081905550346000808481526020019081526020016000206001016000828254610c759190611347565b92505081905550610d15565b346002600084815260200190815260200160002060003373ffffffffffffffffffffffffffffffffffffffff1673ffffffffffffffffffffffffffffffffffffffff1681526020019081526020016000206000828254610ce19190611347565b92505081905550346000808481526020019081526020016000206002016000828254610d0d9190611347565b925050819055505b3373ffffffffffffffffffffffffffffffffffffffff16827fb1bd10cf5ea9540f12b9b182707734fd82deacc56830e2bd316133deb372bff43484604051610d5e92919061168a565b60405180910390a35050565b6001602052816000526040600020602052806000526040600020600091509150505481565b60006020528060005260406000206000915090508060000160009054906101000a900460ff16908060000160019054906101000a900460ff16908060000160029054906101000a900460ff16908060010154908060020154905085565b6002602052816000526040600020602052806000526040600020600091509150505481565b600080fd5b6000819050919050565b610e2981610e16565b8114610e3457600080fd5b50565b600081359050610e4681610e20565b92915050565b600060208284031215610e6257610e61610e11565b5b6000610e7084828501610e37565b91505092915050565b600073ffffffffffffffffffffffffffffffffffffffff82169050919050565b6000610ea482610e79565b9050919050565b610eb481610e99565b82525050565b6000602082019050610ecf6000830184610eab565b92915050565b60038110610ee257600080fd5b50565b600081359050610ef481610ed5565b92915050565b60008060408385031215610f1157610f10610e11565b5b6000610f1f85828601610e37565b9250506020610f3085828601610ee5565b9150509250929050565b60008115159050919050565b610f4f81610f3a565b8114610f5a57600080fd5b50565b600081359050610f6c81610f46565b92915050565b60008060408385031215610f8957610f88610e11565b5b6000610f9785828601610e37565b9250506020610fa885828601610f5d565b9150509250929050565b610fbb81610e99565b8114610fc657600080fd5b50565b600081359050610fd881610fb2565b92915050565b60008060408385031215610ff557610ff4610e11565b5b600061100385828601610e37565b925050602061101485828601610fc9565b9150509250929050565b61102781610e16565b82525050565b6000602082019050611042600083018461101e565b92915050565b61105181610f3a565b82525050565b7f4e487b7100000000000000000000000000000000000000000000000000000000600052602160045260246000fd5b6003811061109757611096611057565b5b50565b60008190506110a882611086565b919050565b60006110b88261109a565b9050919050565b6110c8816110ad565b82525050565b600060a0820190506110e36000830188611048565b6110f06020830187611048565b6110fd60408301866110bf565b61110a606083018561101e565b611117608083018461101e565b9695505050505050565b600082825260208201905092915050565b7f6e6f7420736574746c6564000000000000000000000000000000000000000000600082015250565b6000611168600b83611121565b915061117382611132565b602082019050919050565b600060208201905081810360008301526111978161115b565b9050919050565b7f6e6f2077696e6e65727300000000000000000000000000000000000000000000600082015250565b60006111d4600a83611121565b91506111df8261119e565b602082019050919050565b60006020820190508181036000830152611203816111c7565b9050919050565b7f6e6f20636f6e747269627574696f6e0000000000000000000000000000000000600082015250565b6000611240600f83611121565b915061124b8261120a565b602082019050919050565b6000602082019050818103600083015261126f81611233565b9050919050565b7f4e487b7100000000000000000000000000000000000000000000000000000000600052601160045260246000fd5b60006112b082610e16565b91506112bb83610e16565b92508282026112c981610e16565b915082820484148315176112e0576112df611276565b5b5092915050565b7f4e487b7100000000000000000000000000000000000000000000000000000000600052601260045260246000fd5b600061132182610e16565b915061132c83610e16565b92508261133c5761133b6112e7565b5b828204905092915050565b600061135282610e16565b915061135d83610e16565b925082820190508082111561137557611374611276565b5b92915050565b7f6f6e6c79206f776e657200000000000000000000000000000000000000000000600082015250565b60006113b1600a83611121565b91506113bc8261137b565b602082019050919050565b600060208201905081810360008301526113e0816113a4565b9050919050565b7f6d61726b65742065786973747300000000000000000000000000000000000000600082015250565b600061141d600d83611121565b9150611428826113e7565b602082019050919050565b6000602082019050818103600083015261144c81611410565b9050919050565b7f6e6f206d61726b65740000000000000000000000000000000000000000000000600082015250565b6000611489600983611121565b915061149482611453565b602082019050919050565b600060208201905081810360008301526114b88161147c565b9050919050565b7f616c7265616479207265736f6c76656400000000000000000000000000000000600082015250565b60006114f5601083611121565b9150611500826114bf565b602082019050919050565b60006020820190508181036000830152611524816114e8565b9050919050565b7f696e76616c696400000000000000000000000000000000000000000000000000600082015250565b6000611561600783611121565b915061156c8261152b565b602082019050919050565b6000602082019050818103600083015261159081611554565b9050919050565b60006020820190506115ac60008301846110bf565b92915050565b7f6d61726b6574207265736f6c7665640000000000000000000000000000000000600082015250565b60006115e8600f83611121565b91506115f3826115b2565b602082019050919050565b60006020820190508181036000830152611617816115db565b9050919050565b7f6e6f2076616c7565000000000000000000000000000000000000000000000000600082015250565b6000611654600883611121565b915061165f8261161e565b602082019050919050565b6000602082019050818103600083015261168381611647565b9050919050565b600060408201905061169f600083018561101e565b6116ac6020830184611048565b939250505056fea2646970667358221220f4b36c8e591e806bf75420afd647326d16aa4f3c1dc486aa755160dd9e939d3264736f6c63430008140033",
  "linkReferences": {},
  "deployedLinkReferences": {}
}